:100000000C9434000C9451000C9451000C94510049
:100010000C9451000C9451000C9451000C9451001C
:100020000C9451000C9451000C9451000C9451000C
:100030000C9451000C9451000C9451000C945100FC
:100040000C9451000C9451000C94EB000C94510052
:100050000C9451000C9451000C9451000C945100DC
:100060000C9451000C94510011241FBECFEFD8E026
:10007000DEBFCDBF11E0A0E0B1E0EAE0F4E002C0F5
:1000800005900D92A230B107D9F721E0A2E0B1E0CE
:1000900001C01D92AD33B207E1F70E9488000C94B5
:1000A00003020C940000219A25B12D7F35B13260F6
:1000B0004FB7F89461157105B1F0FC01680F791F15
:1000C000919188E035B9000000C097FF25B9990FDC
:1000D000000000C000C000C025B900C08A9591F79B
:1000E000E617F70769F74FBF0895809100018093E5
:1000F000C400809101018093C500E1ECF0E08081B3
:1001000088698083E2ECF0E08081866080830895D6
:100110008FEF8AB91BB80E94750078940E9476010F
:100120000E94DB0180910801882311F05A9A01C0D6
:100130005A9880910701882311F05B9A01C05B985F
:1001400080910601882311F05C9A01C05C9880912F
:100150000501882311F05D9A01C05D98809104012A
:10016000882311F05E9A01C05E9880910301882374
:1001700089F05A985B985C985D985E98109203019C
:1001800010920801109207011092060110920501C9
:100190001092040180910201882359F05C985D98C7
:1001A0005E981092020110920601109205011092C1
:1001B00004012FEF89EF90E0215080409040E1F75B
:1001C00000C00000AFCFE0ECF0E0908195FFFDCFE4
:1001D0008093C60008951F920F920FB60F921124BC
:1001E0002F933F934F935F936F937F938F939F933F
:1001F000AF93BF93EF93FF938091C6008A3041F491
:100200009091080181E0911180E08093080149C03C
:100210008B3041F49091070181E0911180E080934F
:1002200007013FC08C3041F49091060181E09111AB
:1002300080E08093060135C08D3041F49091050136
:1002400081E0911180E0809305012BC08E3041F454
:100250009091040181E0911180E08093040121C01C
:100260008E3121F481E0809303011BC08F3121F492
:1002700081E08093020115C0843199F0823319F432
:100280000E94B3010EC0833319F40E948A0109C091
:10029000843319F40E94DB0104C08C3311F40E94F2
:1002A0007601809104013091050120910601909121
:1002B000070140910801880F830F880F820F880F74
:1002C000890F880F840F0E94E300FF91EF91BF9187
:1002D000AF919F918F917F916F915F914F913F91DE
:1002E0002F910F900FBE0F901F901895CF93DF9313
:1002F000E9E0F1E0118210821282C9E0D0E063E00F
:1003000070E089E091E00E9453002197C1F7DF91EE
:10031000CF910895CF93DF93E9E0F1E08FEF8183F0
:1003200084E68083128210923C01C0E0D0E014C0C9
:1003300010923C011C161D067CF463E070E089E01D
:1003400091E00E94530080913C018F5F80933C01BB
:1003500090E08C179D078CF32196C830D10541F7AA
:10036000DF91CF910895CF93DF93E9E0F1E08FEF34
:1003700081831082128210923C01C0E0D0E014C050
:1003800010923C011C161D067CF463E070E089E0CD
:1003900091E00E94530080913C018F5F80933C016B
:1003A00090E08C179D078CF32196C830D10541F75A
:1003B000DF91CF910895CF93DF93E9E0F1E01182CF
:1003C0008FEF8083128210923C01C0E0D0E014C015
:1003D00010923C011C161D067CF463E070E089E07D
:1003E00091E00E94530080913C018F5F80933C011B
:1003F00090E08C179D078CF32196C830D10541F70A
:0A040000DF91CF910895F894FFCF2B
:02040A00670089
:00000001FF
